:040000006F20C0109D
:100004000000000000000000900000209A0500207D
:10001400A9BDF9F3900000200000000000000000DA
:10002400900000209000002000000000000000006C
:10003400900000200000000090000020000000005C
:10004400900000209C0000209000002090000020E0
:100054009000002090000020680100209000002003
:1000640090000020DE00002090000020900000207E
:1000740074010020900000209000002090000020D7
:10008400F400002090000020900000209000002048
:1000940001A0411106C6EF00F044F5BFB7170040B8
:1000A4000967239EE7089757000083C7777A95E787
:1000B40017C506E0130505B597B002E0E78080D7C1
:1000C40085470146896503C55181175700002304FC
:1000D400F77A97C000E0E780E04C730020303737B0
:1000E400004083476780A18B81C7A1472303F78022
:1000F4007300203037370040834767C0858BBDC30A
:10010400411122C685472303F7C017250000035574
:100114000518978000E0E780C0B01724000013049E
:10012400E416835724008507C207C18317270000FC
:10013400231FF7141D476373F7021C4405456343EB
:10014400F7000945978000E0E78000E29727000068
:1001540023A2071497270000239B0712324441016E
:100164007300203073002030979000E0E780209BDC
:1001740073002030B7170040130700032388E702F9
:10018400854723A6F196730020304111B71700402C
:10019400985F3AC6945F3247E39CE6FE32454101DC
:1001A400828073270080218B9387019709CB732763
:1001B400008023A8E19698435D9B731007800F107D
:1001C400000037170040930670052300D7049306F8
:1001D40080FA2300D7040F1000008346B70493F677
:1001E400F60DA305D7042300070473260080944367
:1001F400A18AD18E7390068023A801960F10000067
:1002040093760502638406180347A700118B25E73C
:1002140073270080218B09CB7327008023A8E196E4
:1002240098435D9B731007800F1000003717004040
:10023400930670052300D704930680FA2300D7049D
:100244000F1000008346A70093E646002305D7005D
:1002540023000704F32600809843218B558F7310E5
:10026400078023A801960F1000001307004B01001C
:1002740001007D176DFF73270080218B09CB732745
:10028400008023A8E19698435D9B731007800F10AC
:10029400000037170040930670052300D704930627
:1002A40080FA2300D7040F1000007D892314A700CF
:1002B400010001000100010023000704F32600806F
:1002C4009843218B558F7310078023A801960F1034
:1002D400000073270080218B09CB7327008023A89B
:1002E400E19698435D9B731007800F100000371749
:1002F4000040930670052300D704930680FA230078
:10030400D7040F1000000F100000B726004013069A
:100314001005A383C68023000704F32600809843B6
:10032400218B558F7310078023A801960F100000AE
:1003340073270080218B09CB7327008023A8E196C3
:1003440098435D9B731007800F100000371700401F
:10035400930670052300D704930680FA2300D7047C
:100364000F1000008346B70493E60608A305D704DC
:1003740023000704732700809C43A18BD98F7390BB
:10038400078023A801960F1000008280937605044D
:10039400638B06140347A700418B25E7732700806E
:1003A400218B09CB7327008023A8E19698435D9B9A
:1003B400731007800F100000371700409306700574
:1003C4002300D704930680FA2300D7040F100000FB
:1003D4008346A70093E606012305D70023000704FC
:1003E400F32600809843218B558F7310078023A830
:1003F40001960F1000001307007D010001007D1716
:100404006DFF73270080218B09CB7327008023A8FD
:10041400E19698435D9B731007800F100000371717
:100424000040930670052300D704930680FA230046
:10043400D7040F1000009376F50193E60604231405
:10044400D700010001000100010023000704F32686
:1004540000809843218B558F7310078023A8019641
:100464000F100000130760046310E5047327008075
:10047400218B09CB7327008023A8E19698435D9BC9
:10048400731007800F1000003717004093067005A3
:100494002300D704930680FA2300D7040F1000002A
:1004A400B72600400946B5B573270080218B09CBD8
:1004B4007327008023A8E19698435D9B73100780FF
:1004C4000F10000037170040930670052300D7046F
:1004D400930680FA2300D7040F100000B7260040CB
:1004E400130620053DB573270080218B09CB7327A4
:1004F400008023A8E19698435D9B731007800F103A
:10050400000037170040930670052300D7049306B4
:1005140080FA2300D7040F1000008356870093E667
:10052400060C2314D700C5BB411181460146814501
:10053400114506C6192CF3270080A18B93860197D9
:1005440089CBF327008023A8F1969C42DD9B73900E
:1005540007800F100000B7170040130770052380B1
:10056400E704130780FA2380E7040F10000003C791
:100574006704136717002383E704238007047327A2
:1005840000809C42A18BD98F7390078023A8019689
:100594000F100000B240410182808146014681452E
:1005A40011456522F3270080A18B1387019789CB1E
:1005B400F327008023A8F1961C43DD9B73900780EA
:1005C4000F100000B7170040930670052380D7046E
:1005D400930680FA2380D7040F100000FD5623965B
:1005E400D70223800704F32600801C43A18BD58FF8
:1005F4007390078023A801960F100000F327008052
:10060400A18B89CBF327008023A8F1961C43DD9BA3
:10061400739007800F100000B71700409306700511
:100624002380D704930680FA2380D7040F10000098
:1006340083C6670493E616002383D7042380070444
:10064400F32600801C43A18BD58F7390078023A8C9
:1006540001960F10000001A0BD473305F50201000B
:100664007D1575FD8280411122C426C206C6AA8466
:10067400014463179400B2402244924441018280B1
:1006840005041305803E4204C13F4180DDB72303C6
:10069400048015472303E48001002302A4808280A0
:1006A40083076480E3CE07FE2303048082808307EC
:1006B4006480E3CE07FE0345448082808307648020
:1006C400E3CE07FE2302A4808280411126C44AC2DD
:1006D4004EC006C61377F50BAD47AA892E899544FB
:1006E4006306F70019456537653F8D444E854537E8
:1006F400FD59FD1463983401B240A2441249824961
:1007040041018280135509011375F50F453F2209F4
:10071400CDB7011126CC06CEB704080051371545D4
:10072400BD37713769372AC6A53F3245937715001F
:1007340089EB136515001375F50FF240E24405616A
:100744008280FD14E9FC0145CDBF397126DC4ADA0B
:100754004ED852D656D45AD25ED006DE62CE66CC7D
:10076400B7E700E07D5783AA070022C603AA470023
:1007740023A0E71823A2E718B71700401307700552
:100784002380E704130780FA2380E70483C7470420
:10079400930B75FFB684E20793FBFB0F8546AA898A
:1007A4002E8B328937240040E187015763FA7601A2
:1007B4006308D5008946130700026313D500015767
:1007C400D98F93F7F70FB71C00402382FC0411471D
:1007D4002303E4801305F00F5D3D094CD135636DAF
:1007E4007C11B7050700DA9537870700795563F25E
:1007F400E504B3879500636EF702370B0800A94739
:1008040033EB65016399F90689E48144513D2685FA
:100814000DA0DA850945553D05090345F9FFFD1489
:10082400050B693D81C49377FB0FFDF7DD3569FD49
:100834007D55B7170040130770052380E70413079D
:1008440080FA2380E70403C74704418B2382E7042B
:10085400F250B7E700E023A0571123A24711E25456
:1008640032445259C259325AA25A125B825B724CB8
:10087400E24C21618280A5476395F90685691309D5
:10088400F00FB3069900B3742B01B6941349F9FF22
:10089400B3749900856B33796901416B9387F9FFD0
:1008A400B3F7270199E363FC340193D94900C147A5
:1008B400E3E637FF99BF0569C1697D19D9B7130507
:1008C400800D6388690113050002638479011305AF
:1008D4001008CA85DD3B353D21DD4E99B384344192
:1008E400D9B7DA852D45D533CA94E30099F20509C1
:1008F4007D3BA30FA9FED5BF9387F9FF93F7F70FAD
:100904006361FC0C83C71C0413073008631FF704DE
:1009140037070800636BEB04B3079B00B7061000AE
:1009240063F5D704334BEB0089476393F906898059
:10093400D549E38C04ECDA850945413B11090327C9
:10094400C9FF91472320E48003076480E34E07FE38
:1009540023033481FD17EDFBFD14110B81C4937740
:10096400FB0FE9FF7D3371F5E1B5B717004003C70D
:100974005704B70708001377070219E3B78707007E
:100984007955E378FBEA33079B00E3FFE7F855B5B5
:100994008547E382F9F2DA852D45053B9389F4FF17
:1009A400E38504E6293393F7390091EB8326048029
:1009B4000327090093074900E39AE6E43E89CE84BD
:1009C400F1BFB5476396F9001305900BC93135BDE6
:1009D400B1471305B00AE38BF9FE99476391F90413
:1009E400B7050800B365BB002D45C53181448D4B67
:1009F400A149753963967401832704802320F90083
:100A04008504E39834FF8327048013172B0163556F
:100A140007002312F900D5BB2322F900FDB39D473B
:100A24006399F90281451305B0044531BD4423207F
:100A3400090023220900FD599D3993F77400CA97D0
:100A440003C70700FD14398D2380A700E39634FF04
:100A54006DBBA1476392F9046D398144630D0B00AA
:100A64008D479304C0036308FB00930400056304EB
:100A74008B01930440041375C507E30895D8194501
:100A8400393139390545213126850D3909453D313D
:100A94004931E31C05D669BB91476399F9001305F5
:100AA4006006F536F53E130590090DB7E38F09D4BA
:100AB400F154A9BB19CD91CD09CE81473387F500F7
:100AC400834607003307F50085072300D700E317A3
:100AD400F6FE828019C991C909CA910583A7C5FF89
:100AE40011057D16232EF5FEC5BF828001C919C6E6
:100AF4002A960505A30FB5FEE31DA6FE8280814755
:100B04003307F5000307070019E33E858280850754
:100B1400C5BF01112E8626CAAA84131506019305A2
:100B2400F004418122CC06CE32C6EF00F0512A8473
:100B340001C53246A685BD3F2285F2406244D244B7
:100B440005618280854715C18DC105C28147B30601
:100B5400F5003387F50083C6060003470700639852
:100B6400E6008507E315F6FE85473E8582808147CA
:100B7400EDBF9307F6FFBE952A966313C5008280E6
:100B8400FD1583C715000505A30FF5FEFDB7AA875C
:100B9400014581CF09CE3E96850703C7F7FF63174A
:100BA400B700E39BC7FE05458280828001458280B1
:100BB40079719387C19922D4804306D626D24AD02C
:100BC4004ECE52CC56CA5AC85EC65DCCB7C4C90113
:100BD400014B938941999384F437176A0000130AEF
:100BE400EA9B976A0000938A2A9F176900001309F9
:100BF400E9A28357240085E35C44631B0B0023AE06
:100C0400F198832BC4002285EF0070505E84B9A84C
:100C14002326FB00FDB783A7090082971C443307F2
:100C2400F5406376F500032749001D8F2A9763E09A
:100C3400E4089767000023A9079A83552400034515
:100C4400040097B000E0E780A07E5C405844A1CB4C
:100C54000C4403264900AE97BE8663E4B70063E400
:100C6400C700B386C74014C4228B3A8459F09767EF
:100C74000000938767969C4B09476370F706F91742
:100C8400176700002322F796B25022549254025957
:100C9400F249624AD24A424BB24B456182806315A3
:100CA4000B0023AEE198B1BF2326EB0099BF0327C5
:100CB4004A0209CF63EFA7003385A74083A70A013F
:100CC4006376F5009767000023A0A792228B404427
:100CD40071BF03274900BA97C5B79767000023A5DA
:100CE40007905DB7411122C41764000013044491B6
:100CF4001C4006C626C24AC091C782979767000067
:100D040023A007909767000083C757A9858B976432
:100D14000000938464A895C397670000A38007A884
:100D240083C774001547637AF700052B83C77400E3
:100D3400F5178A07A2979C4382971C4491C3829714
:100D44001389819803270900176600000346D68893
:100D54009767000083C7478893961700BA9683D68F
:100D64000600C5CE9767000083C7078763E1C70CF9
:100D740097670000238207861C40639507129767D4
:100D8400000083C7F7A191CF83C7740093F7F70FCF
:100D940089EB97670000A38507A097C001E0E7806F
:100DA400409C938741999C43638E070E976700008C
:100DB4009387C786DC43176700002327F782CD3B60
:100DC400975700009387877DDC53E9CF17670000AE
:100DD40013078780184B9757000083C7777D636399
:100DE400F70C83C774001547636EF70A9767000012
:100DF40083C7079F918BDDE7032609009756000000
:100E040083C6967D63C6D70A2244B24092440249FF
:100E1400410117C306E0670023A3850793F7F70F83
:100E240097560000238AF67AE3E4C7F225BF8607C3
:100E34003E97835507002310070023980198938752
:100E4400019A9C43175500000345057913172500A3
:100E5400BA979C43829783D7019917570000034799
:100E6400A77793C7F7FF7D8D931717000327090012
:100E74003E97835707005D8D2310A7009757000006
:100E840083C7877591C78507175700002306F77432
:100E940017570000034747749757000083C7D77359
:100EA400E378F7ECB2402244924402494101828043
:100EB400139717003297035707006DF7850799B703
:100EC400AD6737C70040BD072326F7200F10000089
:100ED4009757000093874770C84F83278726BD66BE
:100EE400BD0693C7F7FF99836A052326D7205D8D36
:100EF40082804111B7170040985F3AC6945F324729
:100F0400E39CE6FE3245410182801305F00F8280A6
:100F14000111976700009387679422CC03A4070C00
:100F240026CA06CE2AC42EC6854419E40145F240D9
:100F34006244D244056182808347910003471400D0
:100F4400858B6304F7000044CDB719469305A100CF
:100F540013052400C53EE31895FE0545C9BF138754
:100F6400C1A51C439306001094C3010001000100B5
:100F740001001C4323A007008346150003482500F5
:100F8400A2064208C29603480500C29603483500EB
:100F94006208C29694D78346550003486500A206AA
:100FA4004208C29603484500C29603487500620889
:100FB400C296D4D7834695000348A500A2064208EA
:100FC400C29603488500C2960348B5006208C296DB
:100FD40094DB8346D5000348E500A2064208C29686
:100FE4000348C5000345F500C2966205AA96D4DB02
:100FF40083C6150003C52500A2064205AA9603C5AB
:101004000500AA9603C535006205AA9694CF83C647
:10101400550003C56500A2064205AA9603C545000E
:10102400AA9603C575006205AA96D4CF83C6950017
:1010340003C5A500A2064205AA9603C58500AA9683
:1010440003C5B5006205AA9694D383C6D50003C52B
:10105400E500A2064205AA9603C5C50083C5F500AE
:10106400AA96E205AE96D4D3D443F59AD4C3D44316
:1010740093E61600D4C3944393E6160094C3BA8748
:101084009443D842058B59E3984E01452300E6006A
:101094009843184F2183A300E6009843184F4183D7
:1010A4002301E6009843184F6183A301E6009C43A3
:1010B400D84F2302E600D84F2183A302E600D84F7D
:1010C40041832303E600D84F6183A303E6009853CA
:1010D4002304E60098532183A304E6009853418334
:1010E4002305E60098536183A305E600D85323063D
:1010F400E600D8532183A306E600D853418323078F
:10110400E600DC53E183A307F600828001008DBF73
:10111400138701A61443411122C49C5E4AC006C62B
:10112400998326C2858B3A841389C1A5D1C79C5E55
:10113400975400009384446693F7F7F99CDE17579D
:1011440000000347C76593070008631BF700832764
:1011540009009C4393F70704175700002301F76421
:1011640083C7040093F707048DC3938741999C4375
:1011740082979757000023A9A76283C7040093F7B7
:10118400F70B175700002309F76083C7440093F750
:1011940007049DE3854717570000A301F760938771
:1011A400C1A69C43096798C7130700FC9756000023
:1011B4002386E65ED844F8D31C40985F1183058BE0
:1011C40009CB985F3D9B98DF05479756000023871E
:1011D400E65C985F1D83058B11CB985F1377F7F757
:1011E40098DF854717570000230AF75A8327090019
:1011F400D8430583058B19C7D843759BD8C3D843F7
:10120400799BD8C3B240224492440249410182806E
:10121400397106DE16DC1ADA1ED82AD62ED432D25A
:1012240036D03ACE3ECC42CA46C872C676C47AC2DA
:101234007EC0F93DF250E2525253C2533255A25588
:10124400125682567247E2475248C248324EA24E64
:10125400124F824F2161730020309387C1A69443BB
:10126400975700009387475303C70700058B11CB9B
:10127400975700002384075297570000A380075212
:10128400828003C71700058B65F7F85271FF83C787
:101294005700DDB7138801A6032708001C5F958358
:1012A400858BD1E709C61C5BBD832300F60085CA84
:1012B40083270800985B4607935767016356070026
:1012C40093E707C0C207C18303970600C207C1871B
:1012D40009C7BA970947B3C7E7022390F60085CD3B
:1012E400834715008DCB9756000083C6464B93F673
:1012F40006041387970089478DCA3A95034705006A
:10130400854699471376F7066311D602620761870B
:10131400B947634C0700832708009C5FED838D8BDE
:1013240017570000A30FF74681473E858280854703
:10133400EDBF411122C406C61384C1A618402DE98D
:10134400AE877453FDFE3E85B28597570000238611
:10135400074497B001E0E7800016938701A69C43F9
:10136400B70680009843558F98C3D857719BD8D738
:1013740097570000A384074297570000A38E0740A5
:101384001C40094798C31440175700001307C7406F
:1013940083472700858B89EB83473700858BD9C327
:1013A40097570000238C073EB240224441018280BB
:1013B4008D47631EF500938701A69C43B706800002
:1013C4009843558F98C3D857719BD8D76DBF85471D
:1013D400E31BF5FA5447F977FD17F58F5CC70F1037
:1013E40000001C40096798C7130700F8175600004F
:1013F4002306E63A138701A61043184231830D8B66
:1014040011E713076019F8D3D4C7B5BF18420946CA
:1014140031830D8B6315C7001307E043EDB7130742
:10142400E01BD5B7FC52ADF741B75D71A2C4A6C2AB
:101434002A84130680022800AE849305100886C609
:10144400CAC04EDE52DCEFF06FEA354597B001E0DA
:10145400E780C042138301A6832703009376F41F19
:10146400138E41A723A40700984B938EC1A6370F70
:10147400FCFF1367F70398CBF84F130510F8B70276
:101484000400137707E0558FF8CF9843F576FD16DF
:10149400758F98C39843B706330093038025137759
:1014A400F7E798C3984311497D1F1377F7E713674C
:1014B400071098C303270E008549930F80021C4729
:1014C400D58F1CC783A70E001307900D3400B8CB2B
:1014D400014793553700A69583C705001376770017
:1014E400B3D7C740858BE1C38327030083280E004D
:1014F400239C07042390070603A8C8021378D8FF87
:1015040023A6080383A807001378F70793F808F8BD
:1015140033E8080123A0070103A8470233685800F1
:1015240023A2070383A80E00014823A2780603DA46
:1015340007066307480303A80703038A0600135832
:10154400F80062081358884163580A0103A8070386
:101554001358F8002380060103D807061378F80F00
:1015640003AA480663060A0003DA8705E37F49FBFA
:1015740003A847023378E80123A207038387060000
:10158400635CF40003C805003396C9001346F6FFF4
:10159400337606012380C5003E8663D3A7002A86DE
:1015A40013158601618505071377F70F8506E31286
:1015B400F7F3B640264496440649F259625A6161EB
:1015C40082809386C1A69C42D8471316170163559F
:1015D4000602984713161701635006027D57B8D7C1
:1015E40017570000130747FF584F05071756000009
:1015F4002322E600116798C798470D83058B1DCBFE
:1016040017570000034767191367170017560000A0
:101614002305E618130700F8175600002300E61800
:10162400214798C7138701A610435856719B136727
:10163400170058D69847058B0DC717570000034766
:10164400B7151367170017560000A307E6140547DC
:1016540098C7138701A610435856719B1367170048
:1016640058D698470983058B09E798470583058B66
:1016740021CF98471756000013060612138501A6BA
:101684000983058B630307101841184331830D8BBD
:1016940075EBAC4B184E93F5050203471700CDCDFF
:1016A40079EF13077006D8CF0347060013671700B6
:1016B400175600002302E60E114798C718415C57DD
:1016C400F19B93E717005CD79C4298479316370128
:1016D40063D606029756000083C6C61FC18A1757F1
:1016E40000001307A717C5CE034787071367070230
:1016F400975600002380E61E056798C798479316FF
:10170400270163D106021757000003472709620720
:101714006187635707000547975600002380E60852
:10172400096798C798479316070163D60602975628
:10173400000083C6361A858A17570000130707125C
:10174400ADCE034797071367270097560000A3837E
:10175400E618216798C7828029D785456315B700A5
:101764001307B00689B789456315B7001307F00658
:101774001DBF8D456315B700130730072DB7130739
:10178400500715B71307600739BF034736001367BF
:10179400170017560000A302E600094739BF834625
:1017A40087070946BD8A6388C600034787078D46B5
:1017B4003D8BE313D7F4114725BF83469707918ADE
:1017C400C9DA034797071367870041B7397106DE03
:1017D40016DC1ADA1ED82AD62ED432D236D03ACE15
:1017E4003ECC42CA46C872C676C47AC27EC0D13BD9
:1017F400F250E2525253C2533255A25512568256F7
:101804007247E2475248C248324EA24E124F824FAC
:101814002161730020309387C1A69843856793871D
:1018240007777CD3938741A79C4383A60709139624
:1018340056006358060083A607091396660063449E
:1018440006007453FDF2828061C1AA870145DDCD93
:101854008D07C207C183F19BC207C18313074003ED
:10186400636BF7021387C1AF0843138741AF144377
:101874006396A60217570000130747D2185B014569
:1018840051C74111C20706C60545DD8D0297B24016
:10189400014541018280138781AFF9B70357650081
:1018A40035E303574500636FF704B306F740214659
:1018B400637CD60203280500938687001D8FAA96B1
:1018C400611717560000035686D12392E60023A021
:1018D40006012393060014C12312F500130786FFA3
:1018E40097560000239DE6CE2313B50097550000BC
:1018F40083D5E5CEB387F540175700002311F7CE03
:10190400210582800841ADB701458280828009CDDE
:101914009387C1AF03A30700938741AF83A8070050
:1019240081469A8763E31701828003A807006369ED
:10193400F50A6367A80A13878700E367E5FE03D601
:101944006700216705076317E60003C741A305077E
:10195400238AE1A297550000938505C803D6470062
:1019640003D7650023930700329742074183175535
:1019740000002316E5C663886702138581AF08411A
:101984006303F50203D5660019ED83D7460023A04F
:10199400060121073E9621062392C60097570000B0
:1019A400239FE7C2B6879843E30017F9938681AF74
:1019B4009442E30BD7F683566700BDF683D64700FF
:1019C400035647001843A106B2962392D70098C342
:1019D40083D76500A107175700002312F7C0828040
:1019E400BE86C28781B7032785116302071241119E
:1019F40022C406C68347C5008345E5042A8493F7B9
:101A0400C70F2306F500834697000356C7001395B6
:101A14008601618563F2C508635B0506034587009B
:101A240093F6F607A304D700054693E6270063144C
:101A3400C50093E617002306D4005C4389075CC302
:101A4400A30AB400032504112E864C430905EFF0C4
:101A54006F868327841103465401D44303D7C700F8
:101A6400B296118FD4C32396E7008947A30DF400DF
:101A7400034764039757000083C767B36378F70489
:101A84008347C40093E707012306F40081A093E78A
:101A940017002306F4006DB79376F60F635D050215
:101AA40003458700854513E627006314B50013E654
:101AB40017002306C400A30AD400A3040700854723
:101AC400A30DF400832784119C43DDF3B240224428
:101AD40001454101828093E717002306F400A30A1D
:101AE400D400A3040700032504114C430905EFE0C7
:101AF4007FFC8327841103465401D44303D7C700D2
:101B0400B296118FD4C32396E7008D4755BF054580
:101B140082809387C1B09C43411122C406C6858B41
:101B24002A84C5EF4165130525F5976002E0E78037
:101B3400C00845C58347A5002315F5008327041273
:101B4400BDE72320A4122322A41285472311F40401
:101B5400232005008347640154412316F5000347FD
:101B6400D4002304E5000547A304E500175700004B
:101B7400130787C2184F1385170215811C437D155F
:101B84001375F50F9CC25C43DCC21C479CC65C47C2
:101B9400DCC61C4B9CCA5C4BDCCA1C4F9CCE5C4F05
:101BA400DCCE19CD9386060213070702C1BF832733
:101BB400441288C3835724042322A412850779B7C7
:101BC4009757000083D707CA850717570000231BC0
:101BD400F7C8B2402244410182808347C4002309EC
:101BE4000400054593C747002306F400DDB7834787
:101BF400850193F7E70FC5EF83479501CDEB0346C6
:101C040025018346C50009CA8345650317570000AB
:101C14000347F79963E7E50013F7060151CB014742
:101C240009C6C18A0357651C81C68356A51C36970D
:101C340041C31307C712175500000355A59EB335BA
:101C4400A70237460F00411113060624814622C419
:101C540026C206C67D543305A70297B002E0E7808A
:101C6400008D9757000083C7F794B384A700975754
:101C740000009387A7BE03A787098327070963F397
:101C840087003E84184375FB938741999C43829750
:101C940081476364A400B307A440B2402244B3B7AD
:101CA400970093C7170092443E8541018280814783
:101CB4003E8582809387C1A698437C53FDFF828032
:101CC400797126D206D622D44AD04ECE52CC56CAE8
:101CD4005AC85EC68347550303447513AA843E94C9
:101CE4001374F40F9307400263F687001304B4FDE2
:101CF4001374F40F03AA841383AAC413A38B84124A
:101D040022865285D68597A002E0E780C07C0589AB
:101D140015E503CBD41201498149337B6403930B4A
:101D240050024A865285D68597A002E0E780A07AC1
:101D3400058915C5639169031374F90F238B841204
:101D4400B250225492540259F249624AD24A424B46
:101D5400B24B456182808509E20993D9894105091D
:101D6400E31179FDE1BF83278509035605047971E1
:101D740093D60701BD8EC206C182358E13577640B5
:101D840093575640898B058B5D8F93573640918BC3
:101D94005D8F93571640A18B5D8F93171600C18BEF
:101DA4005D8F9317360093F707025D8F93175600E4
:101DB4009355860093F707041E065D8F1376F60F7E
:101DC400518F93D7554013D63540118A898BD18FC3
:101DD40013D67540D18F13D61540218AD18F13960F
:101DE4001500418AD18F1396350013760602D18FE0
:101DF40013965500137606049E05D18F93F5F50FBF
:101E0400CD8FA20745465D8F3307C70222D42A84AB
:101E140026D252CC56CA032A8413832AC4135AC81E
:101E240006D6369742074183935777401355574058
:101E34000989858BC98F135537401189C98F13556B
:101E440017402189C98F131517004189C98F1315AC
:101E5400370013750502C98F131557009355870072
:101E6400137505041E07C98F1377F70FD98F13D580
:101E7400354013D755401189098B498F13D57540C7
:101E8400498F13D515402189498F13951500418930
:101E9400498F1395350013750502498F1395550025
:101EA400137505049E05498F93F5F50F4D8F220791
:101EB400D98FB387C7024AD04ECE5EC662C4B697E6
:101EC400C207C18313D7774013D557400989058BBF
:101ED400498F13D537401189498F13D5174021896C
:101EE400498F139517004189498F1395370013754E
:101EF4000502498F1395570093D587001375050480
:101F04009E07498F93F7F70FD98F13D5354013D711
:101F140055401189098B498F13D57540498F13D5C5
:101F240015402189498F139515004189498F1395CF
:101F3400350013750502498F139555001375050473
:101F44009E05498F93F5F50F4D8F2207D98FB387DF
:101F5400C702130650025285D685B697BD8E939458
:101F64000601C18033F6C402137BF60F97A002E08A
:101F7400E780605605890DED8347D41201498149F4
:101F8400B3849702130C5002C1804A865285D685C9
:101F940097A002E0E78020540589937BF90F11C5CF
:101FA40063863403850993F9F90F0509E31F89FD55
:101FB400230B6413B250225492540259F249624AD8
:101FC400D24A424BB24B224C456182805E8BCDB7E4
:101FD400797122D406D683C735002E8423160100D6
:101FE400A307F10083C74500100802C02307F100CE
:101FF40083C755008A8502C2A306F10002C402C841
:1020040002CA02CC02CEEFE09FF50347F1018347F9
:10201400040001456310F7020347E10183471400FC
:1020240001456319F7000345D101834724001D8D41
:1020340013351500B250225445618280011197571F
:1020440000009387A78122CC03A4870C26CA4AC820
:102054004EC606CEAA8413092500854915C083C738
:10206400140003473400858B6304F700405CFDB71C
:102074001946930544004A85EFE0DFACE31835FFC9
:102084002285F2406244D2444249B24905618280C9
:102094004111974700009387677C22C403A4870CEF
:1020A40026C24AC006C693042500054901E82285D4
:1020B400B24022449244024941018280A68513051C
:1020C400A4023937E30525FF405CCDB7411197479A
:1020D40000009387A77822C403A4870C26C24AC0B1
:1020E40006C693042500054901E82285B24022442E
:1020F4009244024941018280A6851305A401C93D89
:08210400E30525FF405CCDB7A7
:10210C00971100209381C126176100201301C1EEA5
:10211C001305400097E5FF1F938505EE1706002079
:10212C00130606FE63FAC5008322050023A05500A2
:10213C0011059105E3EAC5FE17A506001305457CBC
:10214C00970500209385C5FB1386018963FAC500AA
:10215C008322050023A0550011059105E3EAC5FE75
:10216C001385018997550020938545816377B500C8
:10217C00232005001105E36DB5FEFD42739002BCF2
:10218C008D4273904280930280087390023097E2E4
:10219C00FF1F938262E693E232007390523037173E
:1021AC000040930770052300F704930780FA23007F
:1021BC00F7040F1000003C47B70600FAE116F58F44
:1021CC00B70600069506D58F3CC797220000938270
:1021DC00E20473901234730020303D432A876373FA
:1021EC00C3029377F700BDEFADE5937606FF3D8A0A
:1021FC00BA960CC34CC30CC74CC74107E36BD7FE54
:10220C0011E28280B306C3408A06970200009696BC
:10221C006780A6002307B700A306B7002306B70004
:10222C00A305B7002305B700A304B7002304B70028
:10223C00A303B7002303B700A302B7002302B70020
:10224C00A301B7002301B700A300B7002300B70018
:10225C00828093F5F50F93968500D58D93960501A5
:10226C00D58D61B7939627009702000096968682CB
:10227C00E78086FA9680C1171D8F3E96E374C3F8EB
:10228C00A5B715E597A702009387476A23AAF1B271
:10229C0097A702009387876823ACF1B2914723A6D6
:1022AC00F1B223A801B2C1472394F1B2B1A0854782
:1022BC006310F50297A702009387076923AAF1B26E
:1022CC0097A702009387876723ACF1B28D47C1BFF4
:1022DC000D476310E50297A706009387E74423AAEE
:1022EC00F1B297A706009387A74323ACF1B28947B5
:1022FC007DB71147E30AE5FA8280938741899C43B5
:10230C006382A706411122C406C623AAA1883724DA
:10231C0000408347044093F7B70F2300F44021C1DA
:10232C002A863775DC028146130505C08145EFA06E
:10233C00021F420541812326A4409717002083C722
:10234C0027833345F5022328A4408347044093E7B1
:10235C0047002300F440B2402244410182802328EC
:10236C000440E5B7828083D781B213F7170001C709
:10237C00239401B2828013F707013DC3411122C49B
:10238C00138481B21844544006C6636DD700BD9BBC
:10239C002394F1B223A801B223A80188B2402244AD
:1023AC00410182805C440A073E970843B937938702
:1023BC00018994439387160023A8F18818441C487C
:1023CC0013162700B2979043AD47B387C702858396
:1023DC00E3E6F6FC050723A8018823A8E1B27DBF3C
:1023EC008280239401B2014509BF411122C42A8481
:1023FC00218106C6EF9090111375F40F2244B24060
:10240C0041016F90B010411122C4371400400327D2
:10241C00C40C26C2C16406C6458F2326E40CEF907B
:10242C00F00E8327840CB240C58F2324F40C224475
:10243C00924441018280011122CC2A841305A0020E
:10244C0006CE36C22EC632C47D3F1305140042059B
:10245C004181613F22460506131506014181713702
:10246C001305B0024D37B245E905139505014181BD
:10247C00AD3F9246E906139506014181BD37624492
:10248C00F2401305C0020561BDBF4111454506C6AA
:10249C009D3F13051002853F1305100BAD371545F5
:1024AC00EF90D0061305A003EF9050061305A00380
:1024BC00EF90D0051305200BB9371545EF9010059B
:1024CC001305A003EF9090041305A003EF901004E4
:1024DC001305300B0D3F1545EF9050031305A0036A
:1024EC00EF90D0021305A003EF9050021545EF902A
:1024FC00F0011305A003EF9070011305A003EF90FA
:10250C00F0001305400B01370D45EF90300013051B
:10251C00000CD53D13052006EF90407F0945EF9048
:10252C00E07E1145EF90807E1305100CE93D1305FC
:10253C00000CEF90A07D1305200CF1353545EF9084
:10254C00E07C0145EF90807C1305300C6D3D13054C
:10255C00D008EF90A07B1305A006EF90207B13050D
:10256C00400C55351305D008EF90407A1305E00E5A
:10257C00EF90C0791305500C79353945EF900079FF
:10258C001305000E49354145EF9040783945EF90E1
:10259C00E0770945EF9080770D45EF90207739452E
:1025AC00EF90C0761D45EF9060760945EF90007670
:1025BC001D45EF90A0752945EF9040754945EF906A
:1025CC00E07413057002EF90607413057003EF90C4
:1025DC00E0730145EF9080733545EF9020733945DA
:1025EC00EF90C0724145EF9060721305100E213DC3
:1025FC004145EF90A0713945EF9040710D45EF903A
:10260C00E0700D45EF9080703D45EF9020701945BE
:10261C00EF90C06F0945EF90606F2145EF90006F10
:10262C002945EF90A06E4D45EF90406E130560026A
:10263C00EF90C06D13056003EF90406D0145EF9076
:10264C00E06C3545EF90806C3945EF90206C41453E
:10265C00EF90C06B1305A0037D331545EF90006B15
:10266C00130560034D331305800AEF90206AB240C6
:10267C0013059002410141BB01112317A100130660
:10268C00F00981459306F004014506CE6D330566CD
:10269C009967130606FA854593870740B28E37472C
:1026AC00004085481D43374E0040BE866373F600DC
:1026BC00F686034507001398060113580801137595
:1026CC00F50E2300A7002316D70023031701C2869B
:1026DC0085E68346770093F6F60FE5FEB387074150
:1026EC00C207C183F9F38357E100F24017070020BA
:1026FC002311F7480561828003457700E36AA3FC48
:10270C0008082E950345E5FFFD16C2062308AE000A
:10271C0093C51500C1826DBF411122C4AE863284AF
:10272C002A8606C6093B22852244B240410175B96E
:10273C00011122CC4AC84EC652C456C206CE26CA75
:10274C00AA892E84328A3689BA8AF531637689024F
:10275C00F2406244D2444249B249224A924A05614B
:10276C00828085045685C2044931C180E37B9AFE80
:10277C00050442044180D9BFCE84CDBF397122DC1F
:10278C004AD85AD05ECE62CC06DE26DA4ED652D469
:10279C0056D266CA3304A6402A8BAE8B3389B64018
:1027AC00054C63478000014C01C43304C5407D5C7B
:1027BC00854C63482001814C630509003309804036
:1027CC00FD5CA28463532401CA84814A014A814975
:1027DC0063DF3401F2506254D2544259B259225A36
:1027EC00925A025BF24B624CD24C216182809395DF
:1027FC000B0113150B013A86C18141813AC6229A0D
:10280C00213FCA9A324763D54401330A9A40629BEE
:10281C0063D55401B38A9A40E69B8509C20993D9C2
:10282C0009017DB79307800963E9A70E797122D45A
:10283C0006D626D24AD04ECE52CC56CA5AC85EC6FE
:10284C00930700042E8463EFB706B284B68913068F
:10285C0075009386F500C20642068114C18241823E
:10286C0093F4F40F2A8B3A899204F13697AA02005A
:10287C00938A4A0E639309069707002083D7672F24
:10288C006398270193371900170700202313F72E9D
:10289C008149414BB3873401D69703CA07002144C1
:1028AC0093771A004A8589E7170500200355652C94
:1028BC007D141374F40F153E135A1A0075F0850924
:1028CC00E39A69FDB250225492540259F249624A79
:1028DC00D24A424BB24B45618280130A0401420A30
:1028EC00D694135A0A01A14B83CA0400814993F769
:1028FC001A0081CB33053B0142054A86A2854181F2
:10290C00213D850993DA1A00E39379FF050442040B
:10291C0041808504E31A44FD75B78280011122CCF5
:10292C0026CA4AC84EC652C406CE2A84AE84328900
:10293C00B689130A00090346090009EAF240624409
:10294C00D2444249B249224A0561828063768A00A8
:10295C00C104C204C1800144228521044E878146F2
:10296C00A6854204C13541800509F1B701113297A2
:10297C004AC852C413190701416A22CC26CA4EC652
:10298C0056C25AC006CEAA84AE89B68A328413596E
:10299C000901130B0004130A0A808347040091C732
:1029AC0093170401C183631CF900F2406244D244C2
:1029BC004249B249224A924A024B056182806376AF
:1029CC003B015285553981498144034604002685D3
:1029DC00A10456878146CE85C204A935C180050461
:1029EC006DBF411126C24AC0AE843289814513069F
:1029FC00C00206C622C42A84EFF02FFE93070008FB
:102A0C00230424012311F40044C04A858294835783
:102A1C0024003E05B240C607C583C98F13C7F7FF14
:102A2C003D837175058B7D153A07E98FD98F23117D
:102A3C00F400224492440249410182808A05AA95FD
:102A4C00D0C58280084151813D898280411122C4C8
:102A5C0006C65C412A8403058500829783572400AF
:102A6C0093F7077091C78357040085072310F40070
:102A7C0014400357240093D7F6016387A704ED8213
:102A8C00850671769D8A1306F67F9395B600B3770B
:102A9C00E600CD8F2311F40081CAC6073E05C5831D
:102AAC00C98FF18F2311F4001C40954613D7870171
:102ABC001D8B63EFE60497A602009386A6480A07CF
:102ACC003697184336970287F1779387F77F7D8F78
:102ADC002311E400D1BF0357240093D6E701858A64
:102AEC00FD831377F7F06391D7025C442311E40064
:102AFC0099C3228582971840B707F0F8F98F3707EA
:102B0C000101D98F1CC029A0136707082311E40009
:102B1C00B24022444101828013D7E701058BFD832B
:102B2C006385E7028357240093F7F7F093E70701D7
:102B3C002311F4001C4899C3228582971840B707CB
:102B4C00FFF8F98F370700026DBF03570400930796
:102B5C00D014E3FFE7FA8357240093F7F7F093E7D9
:102B6C0007052311F4001C5099C3228582978357C3
:102B7C00240093F7F78F93E707502311F40049BF14
:102B8C0013D7E701058BFD836395E7048357240076
:102B9C0093F7F7F02311F4005C4499C322858297D4
:102BAC00835724003D4793F6F7006389E6001387AB
:102BBC0017003D8BC19BD98F2311F4005C4899C33E
:102BCC00228582971840B707FFF8F98F3707000363
:102BDC000DBF0357040093072004E3FBE7F2835770
:102BEC002400854613F7F7006311D70293F7F7F02B
:102BFC0093E707032311F4001C4C99C32285829799
:102C0C008357240093F7F78F8DBF8946E31AD7FEBD
:102C1C0093F7F7F093E707042311F4005C4CF1BF32
:102C2C0013D7E701058BFD836385E70283572400E7
:102C3C0093F7F7F093E707012311F4001C4899C3AD
:102C4C00228582970357040093071004E3F8E7EEFC
:102C5C0045BF0357040093072004E3FBE7EA8357BF
:102C6C00240093F7F78F93E7071001BF0357240055
:102C7C0093D6E701858AFD831377F7F0639FD7001E
:102C8C0003234402136707062311E400E30203E85D
:102C9C0022852244B24041010283136707012311AC
:102CAC00E4001C4899BF938781899843BA8791E7C0
:102CBC0018D523ACA188014582806384A7009C575A
:102CCC00FDB77D55828041119387818922C4804351
:102CDC0006C609E4B2402244410182802285BD33FC
:102CEC000054C5BF03C7818A054683C7418A83C682
:102CFC00C18A630BC7004DCF0946630EC7080D464A
:102D0C00630FC70001473DA0E38ED7FE63F7D700E2
:102D1C00850793F7F70F054731A8FD17DDBF13069D
:102D2C00300601476366F600850793F7F70F0547F2
:102D3C0063E2F60801468545238EB18819C22386C5
:102D4C00D18A19C32382F18A7D771307178983C728
:102D5C00418AB387E702130740069386018AB3C7FB
:102D6C00E70205671307F776BA9798426304F702F0
:102D7C0023A0F18AB727004003C707001377B70FCA
:102D8C002380E700984298CB03C7070013674700DE
:102D9C002380E7008280014789C7FD1793F7F70F5F
:102DAC000547E3F9D7F8B68705470546814661B76D
:102DBC00B68795B7B6870547054693064006A5BF67
:102DCC009307400663F8B700930780FCB385B740C0
:102DDC0093F5F50F9387C18AAA972380B700828059
:102DEC001387818A9387418A2A97AA972300B70071
:102DFC002380C70082809307800C9375F50F63F4D2
:102E0C00A7009305800C014565BF83C7018B33D5A3
:102E1C00A74005898280397106DE22DC26DA4AD881
:102E2C004ED652D40D478D476363A700AA8713F47F
:102E3C00F70F141013172400369702C802CA02CCDD
:102E4C0002CE032707FF37190040A16997360020EF
:102E5C0023ACE69E17370020A30CF79C9737002075
:102E6C00239007A08327C90C370702001385F9FFAD
:102E7C00D98F2326F90CEFF03F80973700209387EA
:102E8C00279B904793074006173700200347079B63
:102E9C00B366F60297A502009385850D0A85C16479
:102EAC003346F602EF70527EE17793C7F7FF9386B5
:102EBC00F4810A868145214517070020231BF7CA98
:102ECC00B13C0329490A1387F9FFB946130670066A
:102EDC00854513058005EFF0BF859317290163C263
:102EEC00070A1307007E9146130620069145130529
:102EFC008005EFF0BF881307007EB146130620064D
:102F0C00B14513058005EFF07F871307007EB146AE
:102F1C0013068005914513058005EFF03F861307D6
:102F2C00007EB14613062006914513052006EFF0EE
:102F3C00FF841307007EA546130650069D45130516
:102F4C003006EFF0EFFE138704FEA5461306B0051E
:102F5C0095451305E005EFF07F82138704FEA54627
:102F6C001306E005A5451305B005EFF03F81138767
:102F7C0004FEB5461306C005A5451305E005EFF0A4
:102F8C00EFFFE17793C7F7FF0A851707002023129D
:102F9C00F7BEEF3040170A85EF709274E157330596
:102FAC00F50241699306F9810A868145C14417AA45
:102FBC000200130AEAFC13090980930900051305A2
:102FCC00850942054181EFF07F959737002023A5B5
:102FDC0007FC9737002023A307FC9737002023A179
:102FEC0007FC9737002023AF07FA9737002023AD53
:102FFC0007FA9737002023AB07FA9737002023A94D
:10300C0007FA9737002023A707FA9317140093F7B2
:10301C00F70F17370020130727F813962700B7264A
:10302C0010808507938606083A968A07BA9714C2C9
:10303C0094C3930700053304F40297270020938769
:10304C00275F3E94834704009DCF5147CA86228652
:10305C00A6852145EFF09F91C104C204C1805104A3
:10306C00E39234FF371700408327870CF2506254E9
:10307C00B7060200D58F2324F70CD2544259B2590B
:10308C00225A21618280FD465286A6850145EFF0C9
:10309C00FF88D9B7B717004003A7470A83C7018B2E
:1030AC008607218313471700058BBA9793F7F70F01
:1030BC002388F18A05472397E18A814601475146C7
:1030CC00B715004017A50200130545E99106639951
:1030DC00C60011C72388F18A95472397F18A82800D
:1030EC003308D50003A7450C03280800860733775F
:1030FC00070113371700BA9793F7F70F0547F9B77E
:10310C008347050013073007639BE70401114AC886
:10311C001319860122CC26CA4EC652C406CEAE84E2
:10312C002A8481492E8A1359894109A8B30734018D
:10313C0003C52700CA858509EF00206D834714005D
:10314C0063F3F400D28793F7F70FE3C1F9FEF24073
:10315C006244D2444249B249224A05618280130733
:10316C004007639CE70011CA8347150063F3F50021
:10317C00AE8793F5F70F09053DA5828083C7B18B08
:10318C00A9CF9727002083C7C76AA1EB83C7018B00
:10319C00858BA1C783D7818B1307D0156378F70272
:1031AC00A38D018A9727002083C767679DC74111AC
:1031BC000546A545172500201305556606C6893713
:1031CC00B2408547238DF18A410182808D07C20769
:1031DC00C183239CF18AE365F7FC828083C7A18BB2
:1031EC009DC341110146A545172500201305156304
:1031FC0006C63937B240A38D018A238D018A239CE0
:10320C00018A41018280A38D018A238D018A239C2E
:10321C00018A8280411122C406C60544EFF09F82C8
:10322C006302850201C98D47630BF502B24022444B
:10323C004101828083C7218BF5FB2244B2404101BE
:10324C006F30E00983C7218B91C72389018AA3883A
:10325C00A18AE9BF2244B24041016F20D07883C7D4
:10326C00118B81C7A388018AD1B7EF2010685DDD6F
:10327C00B537172500200345B55B05050D89972744
:10328C000020A387A75A930710101727002023129A
:10329C00F75A97270020238B875A9737002023ADA6
:1032AC0007CE9737002023AB07CE9737002023A9F2
:1032BC0007CE9737002023A707CE9737002023A5EA
:1032CC0007CE9737002023A307CE9737002023A1E2
:1032DC0007CE9737002023AF07CC353E2244B240AF
:1032EC00056603C5518113060696916541016F90E1
:1032FC00602A0D479377F50F6373A7008D4713056D
:10330C0040060D47B387A7021375F60F6373C7000A
:10331C000D45130700192E86930540063305E5026B
:10332C00AA97172500201305A5CC3E95D1BB0111FA
:10333C0022CC4AC84EC62A8406CE26CA52C4EFF006
:10334C006FF0AA890309840019E1EF207076172722
:10335C0000200347074E85476316F7029727002086
:10336C00A389E74C639D09028D4763EA27036244F6
:10337C00F240D244B249224A1375F90F4249056111
:10338C006FF07FA909EF631F090A63EA37016390A5
:10339C000902A38DF18A238D018A239C018AF240B4
:1033AC006244D2444249B249224A0561828083C7B1
:1033BC00A18B99CB0146A545172500201305154671
:1033CC008133238D018AE1BF83C7B18BE9DB1727DA
:1033DC00002003470744930730076305F700A38DCC
:1033EC00018A75BF97370020938787C003C4378243
:1033FC00A54763F38700254405691374F40F8144D2
:10340C001309498297290020938989BE93F7F40FF9
:10341C0063E18702972400209384C43F69D07D1414
:10342C001374F40FB3079400838507000945052C2A
:10343C00F5B7B3872401CE9783850700054585042E
:10344C00392CE9B7E3ED37F59724002083C4543EBB
:10345C008D47E3E697F41374F90F1379F90F63F3BF
:10346C0027010D441385418B3309850083470900DF
:10347C002A8A639E090493094006B309340313890D
:10348C0081C14E9991C70146930540064A858D39F5
:10349C0093050019B384B40297250020938545B594
:1034AC00130640064A855294CE94A695EF70E277A7
:1034BC0085472300F4006244F240D244B249224AC8
:1034CC004A854249054693054006056115B999CFD1
:1034DC00130540063304A402138581C101469305EC
:1034EC004006229531392300090055BD22856244DE
:1034FC00F2404249B249224A2686D24481450561AE
:10350C00CDBB79711306C00D81451385C1B322D48F
:10351C0026D24AD04ECE52CC56CA5AC85EC662C4C7
:10352C0006D6EFE09FCB83C7018B9187858B1384E5
:10353C00C1B32389F18A8144A388018A2388018A33
:10354C00A289970B0000938B8B8C170A0000130A2F
:10355C004ADE114B116C170900001309E9CB954A8F
:10356C002686DE852285EFF0CFC7528681452285DF
:10357C00EFF0CFCC528685452285EFF02FCC6392AD
:10358C00640583D7290BB3E787012397F1BE83C763
:10359C00218B89CB83C7390B93F7870793E717F8F0
:1035AC00A387F1BE4A8681452285EFF02FC94A8652
:1035BC0085452285EFF08FC84A868D452285EFF030
:1035CC00EFC722858504EFF00FEE93F7F40F939479
:1035DC0087011304C402E184E39457F9B2502254D6
:1035EC0092540259F249624AD24A424BB24B224C93
:1035FC00456182806F70C26E411106C622C49387EA
:10360C00C1EB056723A00700130717902391E70070
:10361C00138481EC17A702001307879E23A40700CD
:10362C00D8C3130620021307F00381452285239487
:10363C00E700EFE09FBA1306200281451385C1EE27
:10364C00EFE0BFB985472300F4002244B2401306D3
:10365C0000109385C1DB138581DA4101B5A10111FD
:10366C002306A100A306B10009466C00138581DA7C
:10367C0006CE5521F2400561828083C7D1EB85E3EC
:10368C00138781EC89C9834617008547B397A70038
:10369C00D58FA384F1EC3A95A309B5008280054738
:1036AC006398E702411122C4130405FE620461848D
:1036BC0026C20545AE84A28506C65537A6850D459E
:1036CC00793FA2852244B24092440945410141BF51
:1036DC00828083C7D1EBD9EF71C5138781EC9388B6
:1036EC00E1ECBA863A868387B60199E3A38106009A
:1036FC00B687638BE7000388A70163170800FD17E3
:10370C000388C701631208028506E39E16FDA38F8A
:10371C00018A81478146994813F8F70F6391170383
:10372C00D1C2A38F018B8280A38D070103C84700F0
:10373C00238E070023820700A38107015DBF03438B
:10374C0037003A8E631EA30099C2A38F018B89C5E3
:10375C003307F600A301A700B297A38DB7008280B0
:10376C00030EBE01138317000507E30F0EFC9A87A7
:10377C0085465DB705476397E702411122C41314D0
:10378C008501618426C20545AE84A28506C6C13D6D
:10379C00A6850D45E935A2852244B24092440945DF
:1037AC00410175BD828093F7150085E701112AC48C
:1037BC00138581DA2EC606CE052E3246A2456367E6
:1037CC00C500F240138581DA0561B1A6F2400561AE
:1037DC008280828083C7D1EB2A8791E7B335B00012
:1037EC00B305B04059BD05453315E500938781EC11
:1037FC00620583871700618589C55D8DA384A1EC63
:10380C0082801345F5FF7D8DD5BF13070502137715
:10381C00F70F9D4663E5E600130505F265BF03C788
:10382C00D1EB11E7B335B000B305B0405DB593767D
:10383C007500854713573500138681ECB397D70075
:10384C003A96E20703073600E18789C5D98FA301B1
:10385C00F600828093C7F7FFF98FD5BF797122D418
:10386C004AD04ECE56CA5AC85EC606D626D252CCBE
:10387C00138481DA05498D4A138BC18B979B020007
:10388C00938B4B7091492285252683C7C18B637B13
:10389C00A912639A570183C7D18B63840720FD1744
:1038AC00A38EF18A1DA20946DA852285352603C628
:1038BC00D18B83C5C18B5E85EF708242094A83C46C
:1038CC00C18B638F44076384340DE39E24FB8545D1
:1038DC0003C5D18B1D3F83C5D18B179502001305F2
:1038EC00A56BEF70E23F89461386418C814522859A
:1038FC004926E31A45F983C7518C83C5D18B639054
:10390C00F50283C7418C639CA70093073010179571
:10391C00020013056569239EF18AEF70623C83C730
:10392C00418CE39237F793073010239EF18A83C5BD
:10393C00518C1795020013056568EF70623AA1B7B8
:10394C00814503C5D18BD13583C5D18B1795020029
:10395C0013050568EF70C23889461386418C814582
:10396C002285012EE31195F283C7518C83C5D18B2F
:10397C00E39BF5F083C7418CE39727F19307301055
:10398C00239EF18A17950200130585657DB73D4688
:10399C0081451385B1ECA38401ECEFE01F84214633
:1039AC0081451385B1EDEFE05F831D46814513859D
:1039BC0031EEEFE09F82179502001305A563EF70BF
:1039CC006246D1B50D47E388E7EC03C4F1EB2286E0
:1039DC00938581EC1385C1EEEF70C22201CD9385E6
:1039EC0081EC22861385C1EEEF702224A28513850B
:1039FC0081EC652603C7D1EB51EB238F018A9386AB
:103A0C0081EC83C791ECB685014585482148038636
:103A1C0035016355C0007D16A389C50003833501AC
:103A2C003396A8006206E2076186E187631E0306EF
:103A3C001346F6FFF18F050593F7F70F8505E3188D
:103A4C0005FDA384F1EC1945238F018A8387B60108
:103A5C006355F000FD17A38DF6008387B60199E33B
:103A6C00A3810600B6873A8601CA8385A70189E53A
:103A7C00FD178385C7019DE905071377F70F8506A9
:103A8C00E316A7FC2383C18C238FE18AB250225406
:103A9C0092540259F249624AD24A424BB24B4561A6
:103AAC008280238E018A15B7D18F71B7A38DB70091
:103ABC0083C547007D16238E0700A381B7002382A0
:103ACC0007001376F60F4DB7AA87014589CF81CD34
:103ADC0019CA23A80700D0C38CC323A6070023A4AC
:103AEC0007000545828082802A8705C51C41014557
:103AFC0095C35C4385C3544718476386E60063F758
:103B0C00E600B307D7401385F7FF8280BA97958FED
:103B1C00DDBF01458280011106CE22CC26CA4AC8DF
:103B2C004EC652C456C259C183290500AA84638F5C
:103B3C00090603294500630B09062E8AA5C93284A0
:103B4C0029C65D37637385002A8421C083AAC4000B
:103B5C0033095941637324012289338559014A86FB
:103B6C00D285B3092441EF70420C639A0902B389E0
:103B7C002A01DC4063E3F90081499C4823A6340107
:103B8C0089C722868545268582972285F240624424
:103B9C00D2444249B249224A924A05618280884005
:103BAC004E86B3052A01EF704208E1B70144F1BF1C
:103BBC0081470DC11841814711CF544181CE5045E9
:103BCC0018456309E600B307E6406365C700B38791
:103BDC00C600998F3E858280011106CE22CC26CA62
:103BEC004AC84EC652C456C259C183290500AA847C
:103BFC00638F090603294500630B09062E8AA5C9A4
:103C0C00328429C67537637385002A8421C083AA40
:103C1C00840033095941637324012289B385590106
:103C2C004A865285B3092441EF702200639A090237
:103C3C00B3892A01DC4063E3F90081499C4823A441
:103C4C00340189C722868145268582972285F240D8
:103C5C006244D2444249B249224A924A0561828066
:103C6C008C404E8633052A01EF60327CE1B701446B
:103C7C00F1BF011106CE22CC26CA4AC84EC652C488
:103C8C0056C225C9832A05002A8963840A06444141
:103C9C00ADC0B28939CE3684B9C22E8A113F637A4F
:103CAC00AA048327890033054541D29763E3970023
:103CBC00858F637385002A849D8C63739400A28422
:103CCC002686B385FA004E85EF6032763306944033
:103CDC0019C68325090033859900EF60127522857A
:103CEC00F2406244D2444249B249224A924A0561A6
:103CFC0082800144EDB7814701C91841814709C74A
:103D0C00544199C21C45BA973E85828081470DC1AA
:103D1C001841814711CF504101CE54451845B38706
:103D2C00E6406367D700814763F4E600B307E640DB
:103D3C003E858280411106C622C426C24AC031C1CA
:103D4C001C41AA849DCF03294500630C09022E84D3
:103D5C0095C1B93D637385002A849C44A29763E4A2
:103D6C002701B38727419CC49C4889C7228681457B
:103D7C00268582972285B240224492440249410111
:103D8C0082800144C5BF0347050085476316F700D1
:103D9C00834715002380F18C828083C7E1EB0547B4
:103DAC00AA86639BE700034705006318F704FD151B
:103DBC00C20593061500C18101112EC636C406CE6C
:103DCC00EF409033A246B24501C9F24093F5F50F8E
:103DDC00368505616F40D03B17270020034717A697
:103DEC0089476319F700F24013F6F50F8545056115
:103DFC006F60A06BF24005618280828082803D8979
:103E0C007D15954763E6A71A1797020013074723FA
:103E1C000A053A951C41011122CC06CEBA972E8484
:103E2C0082872C0013054030EFE0A1542C0005458F
:103E3C00EFC0D02D1795020013058523EF60927EFD
:103E4C002DA003C725008D476311F70217950200BB
:103E5C0013050523EF60127D854717270020A30F5C
:103E6C00F79C97270020238C079CF2406244056145
:103E7C00828003C725009547E319F7FE83D5A5007B
:103E8C000356E40017950200130585202396B18094
:103E9C002396B1942397C194835704012398F194EA
:103EAC008357240137F400E02399F194EF605263B7
:103EBC0013060064914503C59193EF80A06D0D66C8
:103ECC0013060620914503C5E180EF80A06C179581
:103EDC0002001305251DEF60F2748947130600508C
:103EEC00854503C5518117270020A309F79497270F
:103EFC00002023860794EF80E06908444C44EF606F
:103F0C003273104454441795020013056542EF6058
:103F1C00325D0145EFE0EFB689BF03C725008D4741
:103F2C00E315F7F4179502001305851801BF83C735
:103F3C00250011471795020013050519638EE70438
:103F4C0019476394E704914503C59193EF801006DC
:103F5C0083456400179502001305C518EF6052588D
:103F6C00054597270020A38B078C972700202388D3
:103F7C00078CEFE00FB185473000854513055030B5
:103F8C002304F100EFE0A14ECDB51547E395E7FE14
:103F9C00179502001305C516EF60D268E9BF83C5FB
:103FAC0025001795020013052517EF60725375BD98
:103FBC008280797122D44AD04ECE52CC06D626D2EB
:103FCC0056CA5AC85EC62A892E84BA893E8AADEA78
:103FDC008D679387D7A4328B6319F6028947639652
:103FEC00F502835A0700179502001305E506EF60EA
:103FFC00324F814493FAFA0F979B0200938BCB06B6
:10400C0063C754032945EF60B251A285225483C67D
:10401C000900B2509254F249D24AB24B52875A8696
:10402C00624A424B4A85025945616F60D01EB30704
:10403C009A0083C507005E858504EF60724AC9B794
:10404C000548639006032254B25092540259624AB6
:10405C00D24A424BB24BCE86F2493E8745616F60E5
:10406C0030218947639CF6026397050109E5971790
:10407C0000202386B77C1306401F894503C5E180C9
:10408C00EF804051B250225492540259F249624A84
:10409C00D24A424BB24B0145456182808D47E39336
:1040AC00F6FEE39105FF79FD971700202389077829
:1040BC00D1BF41119397050122C406C6C1872E8436
:1040CC0063DF070003C5E180EF80E00319C1EF70E7
:1040DC00707C2165218DB24022444101828093F78E
:1040EC00150013C51500E5FB93F7450085C383C781
:1040FC00E18013078025914613068002E14503D524
:10410C00C180EFE0210613454400F1B793F7850019
:10411C0013C58500E9F393F725000145CDDF13C5E1
:10412C00250055BF0111170500001305C5F806CE73
:10413C0022CC26CAEF80700B9384E1800544238047
:10414C00A400700085451305503023068100EFE074
:10415C000132171600201306A69283D5A18C1305E5
:10416C006030EFE0C130171600201306669383D53C
:10417C00C18C13057030EFE0812F17E6FF1F13067B
:10418C00A604D5450145EFD0001F8D477000914521
:10419C00130570402305F10023048100A305810061
:1041AC0002C6A3040100EFD0E10C300085451305D5
:1041BC000040EFD0210C13069100854513051040EB
:1041CC00EFD0410B1306A100854513052040EFD01D
:1041DC00610A1306B100854513055040EFD08109E3
:1041EC0099477000854505452306F100EF50C073D3
:1041FC00EF60C07097E5FF1F938585FE13854180A6
:10420C00EF60602903C504008545EF806021F24012
:10421C006244D2440561828041111305800406C6B4
:10422C0097C0FF1FE78060F7930500080545EF7006
:10423C00F024371700408327870CB70620008D45E4
:10424C00D58F2324F70C37052000EF70B0103715ED
:10425C00070013050580EF709051B7470040130716
:10426C0070F82381E7C00D47A381E7C01307000452
:10427C00A380E7C005472387E7C097950200938585
:10428C00A5EA179502001305E5EAEF60722517857C
:10429C0006001305E5F4EF60F238EF2040137D289B
:1042AC00EF60D02BEFE0414AEF60000BA53DEF2013
:1042BC006061179502001305A5E8EF60B23697C050
:1042CC00FF1FE78080DC41118145414506C6EF7038
:1042DC00007E89450145EF603042EF601039AA85B8
:1042EC002394A18C17950200130545E6EF60521F2D
:1042FC0017950200130585E6EF60D232B717004020
:10430C00238C0704B24041018280411106C6EF6044
:10431C00704383D7818CB2403E9542054181410167
:10432C008280011122CC26CA4AC806CE2A890144B1
:10433C008144631CB40033D58402F2406244D244FD
:10434C00424905614205418182804A852EC6050499
:10435C006D3FAA941374F40FB245E1BF1D71B7F50C
:10436C00070081465008E105194586CEA2CCA6CAA5
:10437C00CAC897C0FF1FE780C03C83466101034653
:10438C00710197950200938525DE6800EF60D22FAE
:10439C0011466C0017E5FF1F1305F5E5EF60F208F9
:1043AC009717002083D747C3638907101307503C26
:1043BC006385E71017E7FF1FA30AF7E4A18397159E
:1043CC00002083D565C1179502001305A5DA17E700
:1043DC00FF1F230EF7E2EF60B2109717002083C780
:1043EC00C7BF55466389070E971500209385E5BE18
:1043FC0017E5FF1F130545DDEF603203171400208E
:10440C001304A4BD314697950200938565DD17050D
:10441C0000201305E568EF605201B1472396F18C3B
:10442C00170700201307C76581473A855546B30621
:10443C00F40083C6060093851700050791C6A300F8
:10444C00D700AE87E395C5FE1387170097060020AB
:10445C002388E66225471384270097060020A38152
:10446C00E662C14763DA8700856793870781170780
:10447C0000202317F7604544394697E5FF1F9385C5
:10448C00A5D82295EF60627A9307E4004946979588
:10449C000200938565CF17850600130565D4239517
:1044AC00F18C97C0FF1FE780606929E51795020022
:1044BC001305C5CEEF60121701A09307103C171718
:1044CC000020231BF7B0930710FC17E7FF1FA30F67
:1044DC00F7D28D47EDB597E5FF1F938565D117E5AD
:1044EC00FF1F130565CEEF60427417E4FF1F130422
:1044FC0024D009BFB7F600E0795798CAFD57DCCA3B
:10450C000567B7E700E023A0E7101306F00290C29E
:10451C0023A0E7180F1000001306C00381454808BC
:10452C0097C0FF1FE780005C97F7FF1F938747D565
:10453C003ECA896793870780231CF100B547230483
:10454C00F102976700009387E76CBEC49767000081
:10455C009387076EBEC6A167938707A03ECEB707A9
:10456C000505938707103ED09307B00F2312F10275
:10457C0085472303F1028567938717D02315F10232
:10458C00978700009387C7933EDAB7F507009767C4
:10459C0000009387E76D3EDE8146976700009387A6
:1045AC0027677000E1051945BEC097C0FF1FE78063
:1045BC004019179502001305A5BFEF606272014404
:1045CC0017990200130949AA99447C00A29783C544
:1045DC0007004A850504EF60A270E31894FE294594
:1045EC00EF60027458088147994670003E96034666
:1045FC00060085070507A30CC700E398D7FED24732
:10460C0091C70357810185676373F70001A04808C0
:10461C00EF802041AA8501C917950200130545BA00
:10462C00EF60026C01A0F6406644D6444649256111
:10463C008280797122D426D24AD006D64ECE52CC64
:10464C0056CA5AC802C63307A60093070002AA84AA
:10465C002E89328463DDE70013040002058C179564
:10466C0002001305A5B84204EF60C27B4180938918
:10467C00E18C2397018C916A4E8A7D5B83D5E18C0A
:10468C0063FC5501914670002D4597C0FF1FE780D4
:10469C00400BB2476393670583D5E18CB1C5811597
:1046AC00C205C1812397B18CA2864A86A6952D4559
:1046BC0097C0FF1FE780E00883D5E18C2286A69582
:1046CC0017950200130505B4EF60826183570A0049
:1046DC00938707022397F18C1DA083D7090093873A
:1046EC0007022397F18C59BF228681454A85EFD06A
:1046FC00DFAE17950200130565B0EF60A272B250E1
:10470C00225492540259F249624AD24A424B4561B0
:10471C008280411122C426C24AC006C63307A600B5
:10472C0093070002AA842E89328463DDE700130408
:10473C000002058C17950200130545AB4204EF608F
:10474C00626E418003D7E18C91676364F7029166D6
:10475C0001468145254597C0FF1FE78080FE937574
:10476C00F50F17950200130525ABEF6062572397E1
:10477C00018C83D5E18C4A86A695A286294597C0E3
:10478C00FF1FE78000FC83D5E18C22862244B240D7
:10479C000249A695924417950200130525A94101DB
:1047AC006F600254A54763E8B704814681479D4872
:1047BC0013F8F60F6365B80013B527008280330732
:1047CC00D5000347070005CB01461373F60F636D45
:1047DC000301130707021377F70F63F5E80085074A
:1047EC0093F7F70F8506E9B705063303C5000343B6
:1047FC00F3FFE31CE3FC01458280011122CC06CEC1
:10480C002E842AC6EF10D02A32452286A38C018C26
:10481C00AA85170500201305A52AEFF0CFAF630872
:10482C008500179502001305A5AFEF60A25F6244E7
:10483C00F24003C55181856505616F70703E411171
:10484C0006C6653FB2408547A38CF18C410182803E
:10485C0083C7418D639807187971238C018C26D2FC
:10486C004AD04ECE06D622D452CC56CA5AC85EC6B0
:10487C009706002083C606661307A00A2E89AA890C
:10488C0081446394E6149706002083C6B66413072C
:10489C00B00BBE84639BE61203D4A18D13060010EB
:1048AC001705002013050563018E229563F3C500DF
:1048BC002E864A944204CE854180EF600237239DB8
:1048CC00818C9307001063E88702170700201307F9
:1048DC0067608D479306C00C1306D00D63E0870408
:1048EC00B250225492540259F249624AD24A424B73
:1048FC00B24B456182802254B25092540259F24913
:10490C00624AD24A424BB24B13060010814517053E
:10491C0000201305255C45616FD03F8C8345270033
:10492C00639AD502834537006396C50285651707E0
:10493C0000201307475AF5179385058003C551814D
:10494C0023A8E18C239BF18CEF70902D8547238A53
:10495C00F18C79B78507C207C183050741B7B385C9
:10496C00990003C705006313470303C71500631FB2
:10497C00570133069940B28B6374CB0013060010B9
:10498C003E85EF60822AAA87239D718D8504C2041F
:10499C00C180E3E684FC83D6A18D170700201307A2
:1049AC0067538D471306C00C9305D00DE3FAD7F26D
:1049BC00034527006316C50003453700E308B5F629
:1049CC008507C207C1830507D5B71304F9FF130A7E
:1049DC00A00A930AB00B130B0010970700209387C3
:1049EC00674F45BF8280411106C69D3583C7418DF7
:1049FC0081C78547238CF18CB24041018280011123
:104A0C0022CC06CE09472A8481476374B7008347BA
:104A1C00250003C7418D0DC303C7818D85476314E2
:104A2C00F7022EC6EF30506DB24511CD228562448F
:104A3C00F24005616F305071130710086395E70061
:104A4C0003C7918DE1BF22856244F24005616F502E
:104A5C00B009F17701119387A7BA2314F100F97704
:104A6C002305A100A305B1009387C7DC2800994555
:104A7C0006CE2316F1006137F24005618280F17792
:104A8C0079719387A7BA06D62316F10097170020E1
:104A9C00938707DA03C7C70023070100A307E100C8
:104AAC00130720132318E10011472309E10003C762
:104ABC001700A309E100984F83C7B703230AE1004D
:104ACC00A30AF100970700209387875283C7C77BFF
:104ADC00171700200347A7D6230BF10097170020C8
:104AEC0083C7D7D5F91793B7170019C393E72700D6
:104AFC00171700200347B7D419C393E74700A30B3C
:104B0C00F100F9779387C7DC6800B945231CF100E5
:104B1C00FD35B250456182805D7186C6A2C4A6C2C5
:104B2C00CAC04EDE52DC56DA5AD88347050081EFF4
:104B3C00B937B640264496440649F259625AD25ABD
:104B4C00425B616182802A84AE84EF1060760347F9
:104B5C00040085476314F702594681451705002068
:104B6C001305A547EFD06FE71386F4FF93051400E8
:104B7C001705002013056546EF60220B0347040060
:104B8C0089476310F7021386F4FF93051400170589
:104B9C0000201305654497070020239F0742EF6010
:104BAC00C2080347040091476314F700EF00504D0F
:104BBC000347040093073007631FF7128347140061
:104BCC0005479387D7F893F7F70F6369F70A0345FF
:104BDC0024000D476361A71283473400636DF710FF
:104BEC00130700193305E5021307400617090020C7
:104BFC00130909401306400681459389C4FFB38706
:104C0C00E7023E954A95EFD04FDD9307200663F4FB
:104C1C003701930920060345340083472400930A87
:104C2C004006130A0019B38747034E8693054400C8
:104C3C00330555033E9509054A95EF50127F83477E
:104C4C0034000347240083461400B387570333070B
:104C5C004703BA97CA972380D7008347340003478A
:104C6C002400B387570333074703BA973E99854708
:104C7C00A300390117170020230EF7BE03471400B9
:104C8C00930750076319F706834724000D476364A5
:104C9C00F706034534006360A7065149130A000563
:104CAC00B3874703970900209389893451469305AC
:104CBC000002330525033E95130505644E95EFD090
:104CCC00CFD103452400834734001386C4FF33053A
:104CDC004503B38727033E95130505644E9563730F
:104CEC00C900514693054400EF503274854717179D
:104CFC0000202301F7B80345040093070008631252
:104D0C00F514A1476395F4008347140099C78545B2
:104D1C0013050008EFF0FFD329BD03493400834489
:104D2C0024008347540022093369990083444400CA
:104D3C00A207C58F83446400C204C58F83447400EA
:104D4C00E204DD8CEF40B024AA8609ED83D5A18165
:104D5C00178502001305C54EEF5092789545034513
:104D6C0004004DBF8545E30C09FE93974401A14512
:104D7C00FDF763F6A400B307954063FC2701CA85D1
:104D8C002686178502001305A54EEF5072759945BE
:104D9C00F9B793D9C400139A0901135A0A0126864C
:104DAC00CA85D286178502001305C54FEF50527382
:104DBC005285EF40D0111785020013056550EF6046
:104DCC0062069717002023A997A8CA94971700206A
:104DDC0023A697A8854717170020A303F7A8B71495
:104DEC00004003A7C40C37090200014533672701B3
:104DFC0023A6E40CEFD05F889306007E1786020092
:104E0C001306464CE1456145EFD05FB11D46335664
:104E1C00CA02D286978502009385054C0808EF607C
:104E2C00A2069306007E1008930580026145EFD020
:104E3C00FFAE83A7840CB3E7270123A4F40C8145B0
:104E4C0039BF930720086313F50CA147E399F41EAF
:104E5C00034514008D4763E7A70A034A34008347D0
:104E6C0024008145220A336AFA00034B4400834430
:104E7C0054008349640003497400EF00B070AA8A9F
:104E8C00630445018945E1BD0145EF005072A20460
:104E9C004205B3E464014181E36695FE8346140048
:104EAC001947970700209387A714B386E6022209B7
:104EBC00336939011785020013058542BE9623908C
:104ECC00567983461400B386E602BE9623919678F3
:104EDC0083461400B386E602BE9623922679834558
:104EEC0014003387E502BA9703D7477883D627781F
:104EFC0003D60778EF50D25E854717170020230B97
:104F0C00F79635BF89451305200829B59307300856
:104F1C006313F506834514008D47E3ECB7C0B7C7A0
:104F2C0083009387A7BA3EC89947230AB100B3857B
:104F3C00F502971700209387A78319461305510193
:104F4C00BE95EF50924EEF4090049D673355F5029D
:104F5C00BD4593578500230EF1009307C0FCA30EAB
:104F6C00F1009307D0FD2316A100A30DA100230F80
:104F7C00F10008086DA1930740086317F506AD47CB
:104F8C006390F406034714008D4763EBE704014775
:104F9C004145970500209385A5052546B307E400F8
:104FAC0083C627006373D500814683471400B387FB
:104FBC00C702AE97BA97238CD7780507E310C7FEC4
:104FCC008547171700202307F78A83471400171704
:104FDC0000200347F785E314F7E6EF10905985B5E9
:104FEC008545130540083DB393075008631CF50233
:104FFC0089476395F40283471400930630061387A0
:10500C00F7FF1377F70F63EBE60017070020230F6A
:10501C00F77817D7FF1F2308F726F9BD8545130529
:10502C005008CDB9930760086316F5008D4513053C
:10503C006008CDB193075009631FF5068547639649
:10504C00F402B7C795009387A7BA3EC897170020FC
:10505C00938707FA83D7E781231AF100F9779387AF
:10506C00C7DC231BF100A14529B71387E4FF63E0DC
:10507C00E7040D47834714006386E4029394070109
:10508C00C1802685EF001048E30E05DE970700204F
:10509C00239F9776854717070020230DF77CEF1089
:1050AC00202171BB83442400A204DD8CD9BF85452B
:1050BC001305500985B193076009631AF5048D47F0
:1050CC00639EF400034714009307500A6318F7001B
:1050DC00034724009307A0056306F70085451305D5
:1050EC0060090DB903C7818D85476304F7009145AD
:1050FC00FDB7814513056009EFF0BF951305800CD2
:10510C0097B0FF1FE780A055EF1060151DB49307F3
:10511C0070096311F51A8547639AF40A9704002005
:10512C0083C4346FB7C797009387A7BA26869705B1
:10513C0000209385256E13055101170400200344AC
:10514C00046E3EC8230A9100EF50322E9385640002
:10515C0095041C1893F4F40F13F9F50FBE941C0866
:10516C00970500209385B56B338527012286238014
:10517C0084FEEF50922BB305240193F5F50F1C1808
:10518C00AE971307E0052380E7FE938715001818E8
:10519C0093F7F70FBA9705472380E7FE938725000F
:1051AC00181893F7F70FBA971307C0FC2380E7FE84
:1051BC0093873500181893F7F70FBA971307D0FD9C
:1051CC002380E7FE910593F5F50F65B3894763FDE1
:1051DC009700034A1400A54793052A0093F5F50F91
:1051EC0063E4470163E695008545130570091DB618
:1051FC003307B40083490700E3E837FF1389150030
:10520C00B3073901E39297FE930A2400D2855685A1
:10521C00EFF04FD971D9B3042401CE852685EFF078
:10522C006FD879D1EFD09FFB2D4681451705002013
:10523C001305D55E97070020239E075C9707002077
:10524C00239B075C970700202398075C9707002097
:10525C002395075C970700202382075CEFC0FFF7BC
:10526C00130930075286D685170500201305855A79
:10527C0097070020238F275997070020A38B4759A6
:10528C00EF50B21A4E86A685170500201305355926
:10529C0097070020A38427599707002023813759AB
:1052AC00EF50B218E9779387775917070020231D21
:1052BC00F75699B1930780096319F50485476395EF
:1052CC00F402B7C798009387A7BA3EC8EF00702FB7
:1052DC009307C0FCA30AF1009307D0FD230AA10099
:1052EC00230BF1009D4571B189476398F400034588
:1052FC001400EF007044E31405B40345040089471F
:10530C008945E389F4A0854531B493079009631569
:10531C00F5029547639EF40083464400034634002F
:10532C008345240003451400EF009044E31905B0B5
:10533C00034504009547E9B79307A0096313F502E9
:10534C0085476386F40085451305A009E1B2EF009B
:10535C005049B7C79A009387A7BA3EC8EF001027E9
:10536C0085BF9307B0096319F50285476392F40270
:10537C00B7C79B009387A7BA3EC8970700209387AF
:10538C00274B83C71700A30A0100230AF100F9B1C8
:10539C0085451305B009BDBA9307C0096319F50813
:1053AC0085476392F408EF40803EB7C79C00938713
:1053BC00A7BA3EC8B7070C00938747403ECAB70749
:1053CC00A050938747763ECC9387A18183D7070063
:1053DC00231FA1000408231EF1009357050123008D
:1053EC00F10293578501A300F1029D673355F50235
:1053FC000144268991492311A1022285EF00301B1B
:10540C000504238AA4001374F40F8504E31734FFF6
:10541C00F9779387C7DC2314F102E9454A85EFF04D
:10542C000FDE6FF00FF185451305C009E5B093074A
:10543C00D0096318F510914785456390F4108344A7
:10544C001400CDE403472400BD4763E7E70E9377D0
:10545C00370093054006B387B702098393050019FB
:10546C0093044006B305B702AE97970500209385C9
:10547C0025B8AE9783453400E3F695A03386B44047
:10548C0021476353C700214637C79D001307A7BAAE
:10549C003AC8034714001379F60FA30BB100230A83
:1054AC00E10003472400BE954A8613059101A30A27
:1054BC00E100230B9100230C2101EF50027793079D
:1054CC009900181893F7F70FBA971307C0FC2380AD
:1054DC00E7FE9307A900181893F7F70FBA9713076D
:1054EC00D0FD2380E7FE9305B900F1B985476391A0
:1054FC00F402834724000D476360F704A545B38786
:10550C00B7029705002093852528A544AE979DB733
:10551C0089476393F4028347240099EF970700208F
:10552C00938707AD83C7C77B2306F100EF00700993
:10553C00A306A1007C003DBF89451305D0096FF07F
:10554C006FFD9307F0096314F5048547639CF4021F
:10555C00B7C79F009387A7BA3EC8B70701049387C4
:10556C0037203ECAB7070800938717F03ECCB70721
:10557C0001CC938707603ECE9307D0FD2300F10248
:10558C00C545C5BA85451305F0096FF0AFF893070B
:10559C0000096311F50489476399F40283471400E9
:1055AC0021476364F702170700202321F72C83455A
:1055BC00140017850200130565D5EF506272EF10C9
:1055CC00407BEF10D00C6FF09F87854513050009C9
:1055DC006FF04FF4930710096313F5048947639B2D
:1055EC00F40203471400C14763E6E7029707002063
:1055FC00238E0724B727100093870708170700206E
:10560C002328F7248347140017070020232EF722A2
:10561C006FF0FF828545130510096FF0AFEF93070C
:10562C0020096311F50489476399F40203471400B8
:10563C008D4763E4E702854717070020230BF71E0D
:10564C0003451400EFD02FFD13060064916503C5CC
:10565C005181EF6030746FF08FFE85451305200982
:10566C006FF04FEB930730096315F514A547639D55
:10567C00F412034714008D4763E8E71283472400B4
:10568C000947FD1793F7F70F6360F712EF402010EF
:10569C00034A4400AA8A8347340083452400034507
:1056AC001400220A336AFA00034B5400834464004A
:1056BC008349740003498400EF00C06C631445FDFA
:1056CC0003452400A204B3E46401EF00406E4205DC
:1056DC004181636995FA99CC1D6533D5AA0293175C
:1056EC000501C183638007FA4205B3079A00418123
:1056FC00636AF5F883472400834614009945614694
:10570C00B386C602170700201307878E2209B369D8
:10571C003901B387B702B697BA97239F477B834764
:10572C00240083461400B387B702B386C602B6972B
:10573C00BA972390977C8347240083461400B38741
:10574C00B702B386C602B6973E97930730FA231179
:10575C00377D17070020A30BF70485471707002098
:10576C00230AF71083471400170700200347570C30
:10577C006317F7EC9707002083C7A70E638107EC2C
:10578C00170700201307C70A834724003843631800
:10579C00F7EA896503C55181970700202382070C1E
:1057AC00EF6010486FF0AFE98545130530096FF0D5
:1057BC006FD6930740096314F5088D47639CF40674
:1057CC008347140063E8F406834724000947FD1758
:1057DC0093F7F70F6360F706EF30707BB7C7940051
:1057EC00834524009387A7BA3EC883471400194702
:1057FC00A30AB100B385E5026147230AF100AA842C
:10580C00194613056101B387E702BE95970700207F
:10581C009387E7F9BE95EF5042419D67B3D4F402EC
:10582C00F9779387C7DC231FF100C145231E910034
:10583C006FF02FF48545130540096FF0AFCD81450E
:10584C006FF04FCD238A018C23A8018C1306001016
:10585C00814517F5FF1F1305E5676FC01F981306E9
:10586C00004097F5FF1F9385E52617F5FF1F1305DD
:10587C0025256FE06FA582806FE0BFDB6FE07FE9CD
:10588C00411122C426C21164856493860484930555
:10589C0004400146254506C697B0FF1FE78060EA25
:1058AC00930504402244B24093860484924417F634
:1058BC00FF1F1306E6732945410117B3FF1F67004D
:1058CC0043E8411106C697070020938767F683D7F4
:1058DC00070097F5FF1F83D5257017850200130568
:1058EC00658917F7FF1F2317F76EEF50623F71465C
:1058FC0097F5FF1F9385056E0145EFE09FE1970734
:10590C00002083C727F781C7B240410195BFB24041
:10591C0041018280AA87130710042E85B2856394F7
:10592C00E7006F60C018130720046394E7006F60F2
:10593C0060228280411106C622C4970700209387FB
:10594C0067ED23A0070023A20700238407001D4650
:10595C008145170500201305B5ECEFC01F8897771C
:10596C000600938727DD03D7070083C7270017049A
:10597C0000201304E467114697750600938545DBF8
:10598C0017050020130595E92302F4822311E48204
:10599C00EF50A229E97793877759231CF482B24000
:1059AC00224441018280011106CE22CC4AC84EC647
:1059BC0026CAEFD0BF8297070020A38407E893077D
:1059CC000010054417070020231EF7E69707002058
:1059DC00238E87E69707002023A807E69707002069
:1059EC00238507E8EFC0FF9F896503C55181EF60F0
:1059FC00F05B9305004003C55181EF60305B93056C
:105A0C00000803C55181EF60705A9305000403C56B
:105A1C005181EF60B059EF40303A0D4997D7FF1FD5
:105A2C0023838786A149970400209384E45601447C
:105A3C001315040123A0040041810504EF20601D0F
:105A4C009104E31734FFEF2060480D457D1997B0A2
:105A5C00FF1FE780C0C0E31809FCEF2020470D456D
:105A6C0097B0FF1FE780A0BF0545EF20E04E014532
:105A7C00EFD06FB8371400400327C40CB7040200F2
:105A8C000145458F2326E40CEFC01FBF8327840CF0
:105A9C00F2404249C58F2324F40C6244D244B249EB
:105AAC0005618280011122CC26CA2E84AA84930718
:105ABC00001913054006B387F4024AC817F9FF1FF3
:105ACC0013090953B285368606CE3305A4023E95DA
